{
  "_format": "hh-sol-artifact-1",
  "contractName": "DustyTapes",
  "sourceName": "contracts/DustyTapes.sol",
  "abi": [
    {
      "inputs": [],
      "stateMutability": "nonpayable",
      "type": "constructor"
    },
    {
      "anonymous": false,
      "inputs": [
        {
          "indexed": true,
          "internalType": "address",
          "name": "owner",
          "type": "address"
        },
        {
          "indexed": true,
          "internalType": "address",
          "name": "approved",
          "type": "address"
        },
        {
          "indexed": true,
          "internalType": "uint256",
          "name": "tokenId",
          "type": "uint256"
        }
      ],
      "name": "Approval",
      "type": "event"
    },
    {
      "anonymous": false,
      "inputs": [
        {
          "indexed": true,
          "internalType": "address",
          "name": "owner",
          "type": "address"
        },
        {
          "indexed": true,
          "internalType": "address",
          "name": "operator",
          "type": "address"
        },
        {
          "indexed": false,
          "internalType": "bool",
          "name": "approved",
          "type": "bool"
        }
      ],
      "name": "ApprovalForAll",
      "type": "event"
    },
    {
      "anonymous": false,
      "inputs": [
        {
          "indexed": true,
          "internalType": "address",
          "name": "previousOwner",
          "type": "address"
        },
        {
          "indexed": true,
          "internalType": "address",
          "name": "newOwner",
          "type": "address"
        }
      ],
      "name": "OwnershipTransferred",
      "type": "event"
    },
    {
      "anonymous": false,
      "inputs": [
        {
          "indexed": true,
          "internalType": "address",
          "name": "from",
          "type": "address"
        },
        {
          "indexed": true,
          "internalType": "address",
          "name": "to",
          "type": "address"
        },
        {
          "indexed": true,
          "internalType": "uint256",
          "name": "tokenId",
          "type": "uint256"
        }
      ],
      "name": "Transfer",
      "type": "event"
    },
    {
      "inputs": [
        {
          "internalType": "address",
          "name": "to",
          "type": "address"
        },
        {
          "internalType": "uint256",
          "name": "tokenId",
          "type": "uint256"
        }
      ],
      "name": "approve",
      "outputs": [],
      "stateMutability": "nonpayable",
      "type": "function"
    },
    {
      "inputs": [
        {
          "internalType": "address",
          "name": "owner",
          "type": "address"
        }
      ],
      "name": "balanceOf",
      "outputs": [
        {
          "internalType": "uint256",
          "name": "",
          "type": "uint256"
        }
      ],
      "stateMutability": "view",
      "type": "function"
    },
    {
      "inputs": [
        {
          "internalType": "uint256",
          "name": "tokenId",
          "type": "uint256"
        }
      ],
      "name": "getApproved",
      "outputs": [
        {
          "internalType": "address",
          "name": "",
          "type": "address"
        }
      ],
      "stateMutability": "view",
      "type": "function"
    },
    {
      "inputs": [
        {
          "internalType": "address",
          "name": "owner",
          "type": "address"
        },
        {
          "internalType": "address",
          "name": "operator",
          "type": "address"
        }
      ],
      "name": "isApprovedForAll",
      "outputs": [
        {
          "internalType": "bool",
          "name": "",
          "type": "bool"
        }
      ],
      "stateMutability": "view",
      "type": "function"
    },
    {
      "inputs": [],
      "name": "isPublicMintEnabled",
      "outputs": [
        {
          "internalType": "bool",
          "name": "",
          "type": "bool"
        }
      ],
      "stateMutability": "view",
      "type": "function"
    },
    {
      "inputs": [],
      "name": "maxPerWallet",
      "outputs": [
        {
          "internalType": "uint256",
          "name": "",
          "type": "uint256"
        }
      ],
      "stateMutability": "view",
      "type": "function"
    },
    {
      "inputs": [],
      "name": "maxSupply",
      "outputs": [
        {
          "internalType": "uint256",
          "name": "",
          "type": "uint256"
        }
      ],
      "stateMutability": "view",
      "type": "function"
    },
    {
      "inputs": [
        {
          "internalType": "address",
          "name": "recipient",
          "type": "address"
        }
      ],
      "name": "mintNFT",
      "outputs": [],
      "stateMutability": "payable",
      "type": "function"
    },
    {
      "inputs": [],
      "name": "name",
      "outputs": [
        {
          "internalType": "string",
          "name": "",
          "type": "string"
        }
      ],
      "stateMutability": "view",
      "type": "function"
    },
    {
      "inputs": [],
      "name": "owner",
      "outputs": [
        {
          "internalType": "address",
          "name": "",
          "type": "address"
        }
      ],
      "stateMutability": "view",
      "type": "function"
    },
    {
      "inputs": [
        {
          "internalType": "uint256",
          "name": "tokenId",
          "type": "uint256"
        }
      ],
      "name": "ownerOf",
      "outputs": [
        {
          "internalType": "address",
          "name": "",
          "type": "address"
        }
      ],
      "stateMutability": "view",
      "type": "function"
    },
    {
      "inputs": [],
      "name": "renounceOwnership",
      "outputs": [],
      "stateMutability": "nonpayable",
      "type": "function"
    },
    {
      "inputs": [
        {
          "internalType": "address",
          "name": "from",
          "type": "address"
        },
        {
          "internalType": "address",
          "name": "to",
          "type": "address"
        },
        {
          "internalType": "uint256",
          "name": "tokenId",
          "type": "uint256"
        }
      ],
      "name": "safeTransferFrom",
      "outputs": [],
      "stateMutability": "nonpayable",
      "type": "function"
    },
    {
      "inputs": [
        {
          "internalType": "address",
          "name": "from",
          "type": "address"
        },
        {
          "internalType": "address",
          "name": "to",
          "type": "address"
        },
        {
          "internalType": "uint256",
          "name": "tokenId",
          "type": "uint256"
        },
        {
          "internalType": "bytes",
          "name": "_data",
          "type": "bytes"
        }
      ],
      "name": "safeTransferFrom",
      "outputs": [],
      "stateMutability": "nonpayable",
      "type": "function"
    },
    {
      "inputs": [
        {
          "internalType": "address",
          "name": "operator",
          "type": "address"
        },
        {
          "internalType": "bool",
          "name": "approved",
          "type": "bool"
        }
      ],
      "name": "setApprovalForAll",
      "outputs": [],
      "stateMutability": "nonpayable",
      "type": "function"
    },
    {
      "inputs": [
        {
          "internalType": "string",
          "name": "baseTokenUri_",
          "type": "string"
        }
      ],
      "name": "setBaseTokenUri",
      "outputs": [],
      "stateMutability": "nonpayable",
      "type": "function"
    },
    {
      "inputs": [
        {
          "internalType": "bool",
          "name": "isPublicMintEnabled_",
          "type": "bool"
        }
      ],
      "name": "setIsPublicMintEnabled",
      "outputs": [],
      "stateMutability": "nonpayable",
      "type": "function"
    },
    {
      "inputs": [
        {
          "internalType": "bytes4",
          "name": "interfaceId",
          "type": "bytes4"
        }
      ],
      "name": "supportsInterface",
      "outputs": [
        {
          "internalType": "bool",
          "name": "",
          "type": "bool"
        }
      ],
      "stateMutability": "view",
      "type": "function"
    },
    {
      "inputs": [],
      "name": "symbol",
      "outputs": [
        {
          "internalType": "string",
          "name": "",
          "type": "string"
        }
      ],
      "stateMutability": "view",
      "type": "function"
    },
    {
      "inputs": [
        {
          "internalType": "uint256",
          "name": "tokenId_",
          "type": "uint256"
        }
      ],
      "name": "tokenURI",
      "outputs": [
        {
          "internalType": "string",
          "name": "",
          "type": "string"
        }
      ],
      "stateMutability": "view",
      "type": "function"
    },
    {
      "inputs": [],
      "name": "totalSupply",
      "outputs": [
        {
          "internalType": "uint256",
          "name": "",
          "type": "uint256"
        }
      ],
      "stateMutability": "view",
      "type": "function"
    },
    {
      "inputs": [
        {
          "internalType": "address",
          "name": "from",
          "type": "address"
        },
        {
          "internalType": "address",
          "name": "to",
          "type": "address"
        },
        {
          "internalType": "uint256",
          "name": "tokenId",
          "type": "uint256"
        }
      ],
      "name": "transferFrom",
      "outputs": [],
      "stateMutability": "nonpayable",
      "type": "function"
    },
    {
      "inputs": [
        {
          "internalType": "address",
          "name": "newOwner",
          "type": "address"
        }
      ],
      "name": "transferOwnership",
      "outputs": [],
      "stateMutability": "nonpayable",
      "type": "function"
    }
  ],
  "bytecode": "0x60806040523480156200001157600080fd5b506040518060400160405280600a81526020017f44757374797461706573000000000000000000000000000000000000000000008152506040518060400160405280600281526020017f44540000000000000000000000000000000000000000000000000000000000008152508160009080519060200190620000969291906200020c565b508060019080519060200190620000af9291906200020c565b505050620000d2620000c66200013e60201b60201c565b6200014660201b60201c565b6040518060400160405280602081526020017f68747470733a2f2f61786a726c2e6769746875622e696f2f6a736f6e6170692f815250600990805190602001906200011f9291906200020c565b506002600a819055506001600b819055506005600c8190555062000321565b600033905090565b6000600760009054906101000a900473ffffffffffffffffffffffffffffffffffffffff16905081600760006101000a81548173ffffffffffffffffffffffffffffffffffffffff021916908373ffffffffffffffffffffffffffffffffffffffff1602179055508173ffffffffffffffffffffffffffffffffffffffff168173ffffffffffffffffffffffffffffffffffffffff167f8be0079c531659141344cd1fd0a4f28419497f9722a3daafe3b4186f6b6457e060405160405180910390a35050565b8280546200021a90620002bc565b90600052602060002090601f0160209004810192826200023e57600085556200028a565b82601f106200025957805160ff19168380011785556200028a565b828001600101855582156200028a579182015b82811115620002895782518255916020019190600101906200026c565b5b5090506200029991906200029d565b5090565b5b80821115620002b85760008160009055506001016200029e565b5090565b60006002820490506001821680620002d557607f821691505b60208210811415620002ec57620002eb620002f2565b5b50919050565b7f4e487b7100000000000000000000000000000000000000000000000000000000600052602260045260246000fd5b61333a80620003316000396000f3fe6080604052600436106101405760003560e01c80636352211e116100b6578063a22cb4651161006f578063a22cb4651461043b578063b88d4fde14610464578063c87b56dd1461048d578063d5abeb01146104ca578063e985e9c5146104f5578063f2fde38b1461053257610140565b80636352211e1461032b57806370a0823114610368578063715018a6146103a55780638da5cb5b146103bc57806395652cfa146103e757806395d89b411461041057610140565b806318160ddd1161010857806318160ddd1461023e5780632373ac221461026957806323b872dd1461029257806342842e0e146102bb578063453c2310146102e457806354ba0f271461030f57610140565b80630116bc2d1461014557806301ffc9a71461017057806306fdde03146101ad578063081812fc146101d8578063095ea7b314610215575b600080fd5b34801561015157600080fd5b5061015a61055b565b604051610167919061272b565b60405180910390f35b34801561017c57600080fd5b50610197600480360381019061019291906121ca565b61056e565b6040516101a4919061272b565b60405180910390f35b3480156101b957600080fd5b506101c2610650565b6040516101cf9190612746565b60405180910390f35b3480156101e457600080fd5b506101ff60048036038101906101fa9190612261565b6106e2565b60405161020c91906126c4565b60405180910390f35b34801561022157600080fd5b5061023c60048036038101906102379190612165565b610767565b005b34801561024a57600080fd5b5061025361087f565b60405161026091906129c8565b60405180910390f35b34801561027557600080fd5b50610290600480360381019061028b91906121a1565b610885565b005b34801561029e57600080fd5b506102b960048036038101906102b4919061205f565b61091e565b005b3480156102c757600080fd5b506102e260048036038101906102dd919061205f565b61097e565b005b3480156102f057600080fd5b506102f961099e565b60405161030691906129c8565b60405180910390f35b61032960048036038101906103249190611ffa565b6109a4565b005b34801561033757600080fd5b50610352600480360381019061034d9190612261565b610aea565b60405161035f91906126c4565b60405180910390f35b34801561037457600080fd5b5061038f600480360381019061038a9190611ffa565b610b9c565b60405161039c91906129c8565b60405180910390f35b3480156103b157600080fd5b506103ba610c54565b005b3480156103c857600080fd5b506103d1610cdc565b6040516103de91906126c4565b60405180910390f35b3480156103f357600080fd5b5061040e6004803603810190610409919061221c565b610d06565b005b34801561041c57600080fd5b50610425610d98565b6040516104329190612746565b60405180910390f35b34801561044757600080fd5b50610462600480360381019061045d9190612129565b610e2a565b005b34801561047057600080fd5b5061048b600480360381019061048691906120ae565b610e40565b005b34801561049957600080fd5b506104b460048036038101906104af9190612261565b610ea2565b6040516104c19190612746565b60405180910390f35b3480156104d657600080fd5b506104df610ed6565b6040516104ec91906129c8565b60405180910390f35b34801561050157600080fd5b5061051c60048036038101906105179190612023565b610edc565b604051610529919061272b565b60405180910390f35b34801561053e57600080fd5b5061055960048036038101906105549190611ffa565b610f70565b005b600d60009054906101000a900460ff1681565b60007f80ac58cd000000000000000000000000000000000000000000000000000000007bffffffffffffffffffffffffffffffffffffffffffffffffffffffff1916827bffffffffffffffffffffffffffffffffffffffffffffffffffffffff1916148061063957507f5b5e139f000000000000000000000000000000000000000000000000000000007bffffffffffffffffffffffffffffffffffffffffffffffffffffffff1916827bffffffffffffffffffffffffffffffffffffffffffffffffffffffff1916145b80610649575061064882611068565b5b9050919050565b60606000805461065f90612c02565b80601f016020809104026020016040519081016040528092919081815260200182805461068b90612c02565b80156106d85780601f106106ad576101008083540402835291602001916106d8565b820191906000526020600020905b8154815290600101906020018083116106bb57829003601f168201915b5050505050905090565b60006106ed826110d2565b61072c576040517f08c379a000000000000000000000000000000000000000000000000000000000815260040161072390612948565b60405180910390fd5b6004600083815260200190815260200160002060009054906101000a900473ffffffffffffffffffffffffffffffffffffffff169050919050565b600061077282610aea565b90508073ffffffffffffffffffffffffffffffffffffffff168373ffffffffffffffffffffffffffffffffffffffff1614156107e3576040517f08c379a00000000000000000000000000000000000000000000000000000000081526004016107da90612988565b60405180910390fd5b8073ffffffffffffffffffffffffffffffffffffffff1661080261113e565b73ffffffffffffffffffffffffffffffffffffffff16148061083157506108308161082b61113e565b610edc565b5b610870576040517f08c379a000000000000000000000000000000000000000000000000000000000815260040161086790612888565b60405180910390fd5b61087a8383611146565b505050565b600b5481565b61088d61113e565b73ffffffffffffffffffffffffffffffffffffffff166108ab610cdc565b73ffffffffffffffffffffffffffffffffffffffff1614610901576040517f08c379a00000000000000000000000000000000000000000000000000000000081526004016108f890612968565b60405180910390fd5b80600d60006101000a81548160ff02191690831515021790555050565b61092f61092961113e565b826111ff565b61096e576040517f08c379a0000000000000000000000000000000000000000000000000000000008152600401610965906129a8565b60405180910390fd5b6109798383836112dd565b505050565b61099983838360405180602001604052806000815250610e40565b505050565b600a5481565b600d60009054906101000a900460ff166109bd57600080fd5b662386f26fc100003414610a06576040517f08c379a00000000000000000000000000000000000000000000000000000000081526004016109fd90612928565b60405180910390fd5b600c54600b541115610a4d576040517f08c379a0000000000000000000000000000000000000000000000000000000008152600401610a4490612788565b60405180910390fd5b600a54610a5933610b9c565b1115610a9a576040517f08c379a0000000000000000000000000000000000000000000000000000000008152600401610a9190612868565b60405180910390fd5b610aa46008611544565b6000610ab0600861155a565b9050600b6000815480929190610ac590612c65565b9190505550610ad48282611568565b610ae681610ae183610ea2565b611742565b5050565b6000806002600084815260200190815260200160002060009054906101000a900473ffffffffffffffffffffffffffffffffffffffff169050600073ffffffffffffffffffffffffffffffffffffffff168173ffffffffffffffffffffffffffffffffffffffff161415610b93576040517f08c379a0000000000000000000000000000000000000000000000000000000008152600401610b8a906128c8565b60405180910390fd5b80915050919050565b60008073ffffffffffffffffffffffffffffffffffffffff168273ffffffffffffffffffffffffffffffffffffffff161415610c0d576040517f08c379a0000000000000000000000000000000000000000000000000000000008152600401610c04906128a8565b60405180910390fd5b600360008373ffffffffffffffffffffffffffffffffffffffff1673ffffffffffffffffffffffffffffffffffffffff168152602001908152602001600020549050919050565b610c5c61113e565b73ffffffffffffffffffffffffffffffffffffffff16610c7a610cdc565b73ffffffffffffffffffffffffffffffffffffffff1614610cd0576040517f08c379a0000000000000000000000000000000000000000000000000000000008152600401610cc790612968565b60405180910390fd5b610cda60006117b6565b565b6000600760009054906101000a900473ffffffffffffffffffffffffffffffffffffffff16905090565b610d0e61113e565b73ffffffffffffffffffffffffffffffffffffffff16610d2c610cdc565b73ffffffffffffffffffffffffffffffffffffffff1614610d82576040517f08c379a0000000000000000000000000000000000000000000000000000000008152600401610d7990612968565b60405180910390fd5b818160099190610d93929190611db6565b505050565b606060018054610da790612c02565b80601f0160208091040260200160405190810160405280929190818152602001828054610dd390612c02565b8015610e205780601f10610df557610100808354040283529160200191610e20565b820191906000526020600020905b815481529060010190602001808311610e0357829003601f168201915b5050505050905090565b610e3c610e3561113e565b838361187c565b5050565b610e51610e4b61113e565b836111ff565b610e90576040517f08c379a0000000000000000000000000000000000000000000000000000000008152600401610e87906129a8565b60405180910390fd5b610e9c848484846119e9565b50505050565b60606009610eaf83611a45565b604051602001610ec0929190612695565b6040516020818303038152906040529050919050565b600c5481565b6000600560008473ffffffffffffffffffffffffffffffffffffffff1673ffffffffffffffffffffffffffffffffffffffff16815260200190815260200160002060008373ffffffffffffffffffffffffffffffffffffffff1673ffffffffffffffffffffffffffffffffffffffff16815260200190815260200160002060009054906101000a900460ff16905092915050565b610f7861113e565b73ffffffffffffffffffffffffffffffffffffffff16610f96610cdc565b73ffffffffffffffffffffffffffffffffffffffff1614610fec576040517f08c379a0000000000000000000000000000000000000000000000000000000008152600401610fe390612968565b60405180910390fd5b600073ffffffffffffffffffffffffffffffffffffffff168173ffffffffffffffffffffffffffffffffffffffff16141561105c576040517f08c379a0000000000000000000000000000000000000000000000000000000008152600401611053906127a8565b60405180910390fd5b611065816117b6565b50565b60007f01ffc9a7000000000000000000000000000000000000000000000000000000007bffffffffffffffffffffffffffffffffffffffffffffffffffffffff1916827bffffffffffffffffffffffffffffffffffffffffffffffffffffffff1916149050919050565b60008073ffffffffffffffffffffffffffffffffffffffff166002600084815260200190815260200160002060009054906101000a900473ffffffffffffffffffffffffffffffffffffffff1673ffffffffffffffffffffffffffffffffffffffff1614159050919050565b600033905090565b816004600083815260200190815260200160002060006101000a81548173ffffffffffffffffffffffffffffffffffffffff021916908373ffffffffffffffffffffffffffffffffffffffff160217905550808273ffffffffffffffffffffffffffffffffffffffff166111b983610aea565b73ffffffffffffffffffffffffffffffffffffffff167f8c5be1e5ebec7d5bd14f71427d1e84f3dd0314c0f7b2291e5b200ac8c7c3b92560405160405180910390a45050565b600061120a826110d2565b611249576040517f08c379a000000000000000000000000000000000000000000000000000000000815260040161124090612848565b60405180910390fd5b600061125483610aea565b90508073ffffffffffffffffffffffffffffffffffffffff168473ffffffffffffffffffffffffffffffffffffffff16148061129657506112958185610edc565b5b806112d457508373ffffffffffffffffffffffffffffffffffffffff166112bc846106e2565b73ffffffffffffffffffffffffffffffffffffffff16145b91505092915050565b8273ffffffffffffffffffffffffffffffffffffffff166112fd82610aea565b73ffffffffffffffffffffffffffffffffffffffff1614611353576040517f08c379a000000000000000000000000000000000000000000000000000000000815260040161134a906127c8565b60405180910390fd5b600073ffffffffffffffffffffffffffffffffffffffff168273ffffffffffffffffffffffffffffffffffffffff1614156113c3576040517f08c379a00000000000000000000000000000000000000000000000000000000081526004016113ba90612808565b60405180910390fd5b6113ce838383611bf2565b6113d9600082611146565b6001600360008573ffffffffffffffffffffffffffffffffffffffff1673ffffffffffffffffffffffffffffffffffffffff16815260200190815260200160002060008282546114299190612b18565b925050819055506001600360008473ffffffffffffffffffffffffffffffffffffffff1673ffffffffffffffffffffffffffffffffffffffff16815260200190815260200160002060008282546114809190612a91565b92505081905550816002600083815260200190815260200160002060006101000a81548173ffffffffffffffffffffffffffffffffffffffff021916908373ffffffffffffffffffffffffffffffffffffffff160217905550808273ffffffffffffffffffffffffffffffffffffffff168473ffffffffffffffffffffffffffffffffffffffff167fddf252ad1be2c89b69c2b068fc378daa952ba7f163c4a11628f55a4df523b3ef60405160405180910390a461153f838383611bf7565b505050565b6001816000016000828254019250508190555050565b600081600001549050919050565b600073ffffffffffffffffffffffffffffffffffffffff168273ffffffffffffffffffffffffffffffffffffffff1614156115d8576040517f08c379a00000000000000000000000000000000000000000000000000000000081526004016115cf90612908565b60405180910390fd5b6115e1816110d2565b15611621576040517f08c379a0000000000000000000000000000000000000000000000000000000008152600401611618906127e8565b60405180910390fd5b61162d60008383611bf2565b6001600360008473ffffffffffffffffffffffffffffffffffffffff1673ffffffffffffffffffffffffffffffffffffffff168152602001908152602001600020600082825461167d9190612a91565b92505081905550816002600083815260200190815260200160002060006101000a81548173ffffffffffffffffffffffffffffffffffffffff021916908373ffffffffffffffffffffffffffffffffffffffff160217905550808273ffffffffffffffffffffffffffffffffffffffff16600073ffffffffffffffffffffffffffffffffffffffff167fddf252ad1be2c89b69c2b068fc378daa952ba7f163c4a11628f55a4df523b3ef60405160405180910390a461173e60008383611bf7565b5050565b61174b826110d2565b61178a576040517f08c379a0000000000000000000000000000000000000000000000000000000008152600401611781906128e8565b60405180910390fd5b806006600084815260200190815260200160002090805190602001906117b1929190611e3c565b505050565b6000600760009054906101000a900473ffffffffffffffffffffffffffffffffffffffff16905081600760006101000a81548173ffffffffffffffffffffffffffffffffffffffff021916908373ffffffffffffffffffffffffffffffffffffffff1602179055508173ffffffffffffffffffffffffffffffffffffffff168173ffffffffffffffffffffffffffffffffffffffff167f8be0079c531659141344cd1fd0a4f28419497f9722a3daafe3b4186f6b6457e060405160405180910390a35050565b8173ffffffffffffffffffffffffffffffffffffffff168373ffffffffffffffffffffffffffffffffffffffff1614156118eb576040517f08c379a00000000000000000000000000000000000000000000000000000000081526004016118e290612828565b60405180910390fd5b80600560008573ffffffffffffffffffffffffffffffffffffffff1673ffffffffffffffffffffffffffffffffffffffff16815260200190815260200160002060008473ffffffffffffffffffffffffffffffffffffffff1673ffffffffffffffffffffffffffffffffffffffff16815260200190815260200160002060006101000a81548160ff0219169083151502179055508173ffffffffffffffffffffffffffffffffffffffff168373ffffffffffffffffffffffffffffffffffffffff167f17307eab39ab6107e8899845ad3d59bd9653f200f220920489ca2b5937696c31836040516119dc919061272b565b60405180910390a3505050565b6119f48484846112dd565b611a0084848484611bfc565b611a3f576040517f08c379a0000000000000000000000000000000000000000000000000000000008152600401611a3690612768565b60405180910390fd5b50505050565b60606000821415611a8d576040518060400160405280600181526020017f30000000000000000000000000000000000000000000000000000000000000008152509050611bed565b600082905060005b60008214611abf578080611aa890612c65565b915050600a82611ab89190612ae7565b9150611a95565b60008167ffffffffffffffff811115611b01577f4e487b7100000000000000000000000000000000000000000000000000000000600052604160045260246000fd5b6040519080825280601f01601f191660200182016040528015611b335781602001600182028036833780820191505090505b5090505b60008514611be657600182611b4c9190612b18565b9150600a85611b5b9190612cae565b6030611b679190612a91565b60f81b818381518110611ba3577f4e487b7100000000000000000000000000000000000000000000000000000000600052603260045260246000fd5b60200101907effffffffffffffffffffffffffffffffffffffffffffffffffffffffffffff1916908160001a905350600a85611bdf9190612ae7565b9450611b37565b8093505050505b919050565b505050565b505050565b6000611c1d8473ffffffffffffffffffffffffffffffffffffffff16611d93565b15611d86578373ffffffffffffffffffffffffffffffffffffffff1663150b7a02611c4661113e565b8786866040518563ffffffff1660e01b8152600401611c6894939291906126df565b602060405180830381600087803b158015611c8257600080fd5b505af1925050508015611cb357506040513d601f19601f82011682018060405250810190611cb091906121f3565b60015b611d36573d8060008114611ce3576040519150601f19603f3d011682016040523d82523d6000602084013e611ce8565b606091505b50600081511415611d2e576040517f08c379a0000000000000000000000000000000000000000000000000000000008152600401611d2590612768565b60405180910390fd5b805181602001fd5b63150b7a0260e01b7bffffffffffffffffffffffffffffffffffffffffffffffffffffffff1916817bffffffffffffffffffffffffffffffffffffffffffffffffffffffff191614915050611d8b565b600190505b949350505050565b6000808273ffffffffffffffffffffffffffffffffffffffff163b119050919050565b828054611dc290612c02565b90600052602060002090601f016020900481019282611de45760008555611e2b565b82601f10611dfd57803560ff1916838001178555611e2b565b82800160010185558215611e2b579182015b82811115611e2a578235825591602001919060010190611e0f565b5b509050611e389190611ec2565b5090565b828054611e4890612c02565b90600052602060002090601f016020900481019282611e6a5760008555611eb1565b82601f10611e8357805160ff1916838001178555611eb1565b82800160010185558215611eb1579182015b82811115611eb0578251825591602001919060010190611e95565b5b509050611ebe9190611ec2565b5090565b5b80821115611edb576000816000905550600101611ec3565b5090565b6000611ef2611eed84612a08565b6129e3565b905082815260208101848484011115611f0a57600080fd5b611f15848285612bc0565b509392505050565b600081359050611f2c816132a8565b92915050565b600081359050611f41816132bf565b92915050565b600081359050611f56816132d6565b92915050565b600081519050611f6b816132d6565b92915050565b600082601f830112611f8257600080fd5b8135611f92848260208601611edf565b91505092915050565b60008083601f840112611fad57600080fd5b8235905067ffffffffffffffff811115611fc657600080fd5b602083019150836001820283011115611fde57600080fd5b9250929050565b600081359050611ff4816132ed565b92915050565b60006020828403121561200c57600080fd5b600061201a84828501611f1d565b91505092915050565b6000806040838503121561203657600080fd5b600061204485828601611f1d565b925050602061205585828601611f1d565b9150509250929050565b60008060006060848603121561207457600080fd5b600061208286828701611f1d565b935050602061209386828701611f1d565b92505060406120a486828701611fe5565b9150509250925092565b600080600080608085870312156120c457600080fd5b60006120d287828801611f1d565b94505060206120e387828801611f1d565b93505060406120f487828801611fe5565b925050606085013567ffffffffffffffff81111561211157600080fd5b61211d87828801611f71565b91505092959194509250565b6000806040838503121561213c57600080fd5b600061214a85828601611f1d565b925050602061215b85828601611f32565b9150509250929050565b6000806040838503121561217857600080fd5b600061218685828601611f1d565b925050602061219785828601611fe5565b9150509250929050565b6000602082840312156121b357600080fd5b60006121c184828501611f32565b91505092915050565b6000602082840312156121dc57600080fd5b60006121ea84828501611f47565b91505092915050565b60006020828403121561220557600080fd5b600061221384828501611f5c565b91505092915050565b6000806020838503121561222f57600080fd5b600083013567ffffffffffffffff81111561224957600080fd5b61225585828601611f9b565b92509250509250929050565b60006020828403121561227357600080fd5b600061228184828501611fe5565b91505092915050565b61229381612b4c565b82525050565b6122a281612b5e565b82525050565b60006122b382612a4e565b6122bd8185612a64565b93506122cd818560208601612bcf565b6122d681612d9b565b840191505092915050565b60006122ec82612a59565b6122f68185612a75565b9350612306818560208601612bcf565b61230f81612d9b565b840191505092915050565b600061232582612a59565b61232f8185612a86565b935061233f818560208601612bcf565b80840191505092915050565b6000815461235881612c02565b6123628186612a86565b9450600182166000811461237d576001811461238e576123c1565b60ff198316865281860193506123c1565b61239785612a39565b60005b838110156123b95781548189015260018201915060208101905061239a565b838801955050505b50505092915050565b60006123d7603283612a75565b91506123e282612dac565b604082019050919050565b60006123fa600883612a75565b915061240582612dfb565b602082019050919050565b600061241d602683612a75565b915061242882612e24565b604082019050919050565b6000612440602583612a75565b915061244b82612e73565b604082019050919050565b6000612463601c83612a75565b915061246e82612ec2565b602082019050919050565b6000612486602483612a75565b915061249182612eeb565b604082019050919050565b60006124a9601983612a75565b91506124b482612f3a565b602082019050919050565b60006124cc602c83612a75565b91506124d782612f63565b604082019050919050565b60006124ef601383612a75565b91506124fa82612fb2565b602082019050919050565b6000612512603883612a75565b915061251d82612fdb565b604082019050919050565b6000612535602a83612a75565b91506125408261302a565b604082019050919050565b6000612558602983612a75565b915061256382613079565b604082019050919050565b600061257b602e83612a75565b9150612586826130c8565b604082019050919050565b600061259e602083612a75565b91506125a982613117565b602082019050919050565b60006125c1600383612a75565b91506125cc82613140565b602082019050919050565b60006125e4602c83612a75565b91506125ef82613169565b604082019050919050565b6000612607600583612a86565b9150612612826131b8565b600582019050919050565b600061262a602083612a75565b9150612635826131e1565b602082019050919050565b600061264d602183612a75565b91506126588261320a565b604082019050919050565b6000612670603183612a75565b915061267b82613259565b604082019050919050565b61268f81612bb6565b82525050565b60006126a1828561234b565b91506126ad828461231a565b91506126b8826125fa565b91508190509392505050565b60006020820190506126d9600083018461228a565b92915050565b60006080820190506126f4600083018761228a565b612701602083018661228a565b61270e6040830185612686565b818103606083015261272081846122a8565b905095945050505050565b60006020820190506127406000830184612299565b92915050565b6000602082019050818103600083015261276081846122e1565b905092915050565b60006020820190508181036000830152612781816123ca565b9050919050565b600060208201905081810360008301526127a1816123ed565b9050919050565b600060208201905081810360008301526127c181612410565b9050919050565b600060208201905081810360008301526127e181612433565b9050919050565b6000602082019050818103600083015261280181612456565b9050919050565b6000602082019050818103600083015261282181612479565b9050919050565b600060208201905081810360008301526128418161249c565b9050919050565b60006020820190508181036000830152612861816124bf565b9050919050565b60006020820190508181036000830152612881816124e2565b9050919050565b600060208201905081810360008301526128a181612505565b9050919050565b600060208201905081810360008301526128c181612528565b9050919050565b600060208201905081810360008301526128e18161254b565b9050919050565b600060208201905081810360008301526129018161256e565b9050919050565b6000602082019050818103600083015261292181612591565b9050919050565b60006020820190508181036000830152612941816125b4565b9050919050565b60006020820190508181036000830152612961816125d7565b9050919050565b600060208201905081810360008301526129818161261d565b9050919050565b600060208201905081810360008301526129a181612640565b9050919050565b600060208201905081810360008301526129c181612663565b9050919050565b60006020820190506129dd6000830184612686565b92915050565b60006129ed6129fe565b90506129f98282612c34565b919050565b6000604051905090565b600067ffffffffffffffff821115612a2357612a22612d6c565b5b612a2c82612d9b565b9050602081019050919050565b60008190508160005260206000209050919050565b600081519050919050565b600081519050919050565b600082825260208201905092915050565b600082825260208201905092915050565b600081905092915050565b6000612a9c82612bb6565b9150612aa783612bb6565b9250827fffffffffffffffffffffffffffffffffffffffffffffffffffffffffffffffff03821115612adc57612adb612cdf565b5b828201905092915050565b6000612af282612bb6565b9150612afd83612bb6565b925082612b0d57612b0c612d0e565b5b828204905092915050565b6000612b2382612bb6565b9150612b2e83612bb6565b925082821015612b4157612b40612cdf565b5b828203905092915050565b6000612b5782612b96565b9050919050565b60008115159050919050565b60007fffffffff0000000000000000000000000000000000000000000000000000000082169050919050565b600073ffffffffffffffffffffffffffffffffffffffff82169050919050565b6000819050919050565b82818337600083830152505050565b60005b83811015612bed578082015181840152602081019050612bd2565b83811115612bfc576000848401525b50505050565b60006002820490506001821680612c1a57607f821691505b60208210811415612c2e57612c2d612d3d565b5b50919050565b612c3d82612d9b565b810181811067ffffffffffffffff82111715612c5c57612c5b612d6c565b5b80604052505050565b6000612c7082612bb6565b91507fffffffffffffffffffffffffffffffffffffffffffffffffffffffffffffffff821415612ca357612ca2612cdf565b5b600182019050919050565b6000612cb982612bb6565b9150612cc483612bb6565b925082612cd457612cd3612d0e565b5b828206905092915050565b7f4e487b7100000000000000000000000000000000000000000000000000000000600052601160045260246000fd5b7f4e487b7100000000000000000000000000000000000000000000000000000000600052601260045260246000fd5b7f4e487b7100000000000000000000000000000000000000000000000000000000600052602260045260246000fd5b7f4e487b7100000000000000000000000000000000000000000000000000000000600052604160045260246000fd5b6000601f19601f8301169050919050565b7f4552433732313a207472616e7366657220746f206e6f6e20455243373231526560008201527f63656976657220696d706c656d656e7465720000000000000000000000000000602082015250565b7f536f6c64204f7574000000000000000000000000000000000000000000000000600082015250565b7f4f776e61626c653a206e6577206f776e657220697320746865207a65726f206160008201527f6464726573730000000000000000000000000000000000000000000000000000602082015250565b7f4552433732313a207472616e736665722066726f6d20696e636f72726563742060008201527f6f776e6572000000000000000000000000000000000000000000000000000000602082015250565b7f4552433732313a20746f6b656e20616c7265616479206d696e74656400000000600082015250565b7f4552433732313a207472616e7366657220746f20746865207a65726f2061646460008201527f7265737300000000000000000000000000000000000000000000000000000000602082015250565b7f4552433732313a20617070726f766520746f2063616c6c657200000000000000600082015250565b7f4552433732313a206f70657261746f7220717565727920666f72206e6f6e657860008201527f697374656e7420746f6b656e0000000000000000000000000000000000000000602082015250565b7f43616e6e6f7420657863656564206c696d697400000000000000000000000000600082015250565b7f4552433732313a20617070726f76652063616c6c6572206973206e6f74206f7760008201527f6e6572206e6f7220617070726f76656420666f7220616c6c0000000000000000602082015250565b7f4552433732313a2062616c616e636520717565727920666f7220746865207a6560008201527f726f206164647265737300000000000000000000000000000000000000000000602082015250565b7f4552433732313a206f776e657220717565727920666f72206e6f6e657869737460008201527f656e7420746f6b656e0000000000000000000000000000000000000000000000602082015250565b7f45524337323155524953746f726167653a2055524920736574206f66206e6f6e60008201527f6578697374656e7420746f6b656e000000000000000000000000000000000000602082015250565b7f4552433732313a206d696e7420746f20746865207a65726f2061646472657373600082015250565b7f5061790000000000000000000000000000000000000000000000000000000000600082015250565b7f4552433732313a20617070726f76656420717565727920666f72206e6f6e657860008201527f697374656e7420746f6b656e0000000000000000000000000000000000000000602082015250565b7f2e6a736f6e000000000000000000000000000000000000000000000000000000600082015250565b7f4f776e61626c653a2063616c6c6572206973206e6f7420746865206f776e6572600082015250565b7f4552433732313a20617070726f76616c20746f2063757272656e74206f776e6560008201527f7200000000000000000000000000000000000000000000000000000000000000602082015250565b7f4552433732313a207472616e736665722063616c6c6572206973206e6f74206f60008201527f776e6572206e6f7220617070726f766564000000000000000000000000000000602082015250565b6132b181612b4c565b81146132bc57600080fd5b50565b6132c881612b5e565b81146132d357600080fd5b50565b6132df81612b6a565b81146132ea57600080fd5b50565b6132f681612bb6565b811461330157600080fd5b5056fea26469706673582212202a1f1acfbfbac7255f84f4da95973b720c096b5271111f1335a026f578ce681564736f6c63430008010033",
  "linkReferences": {},
  "deployedLinkReferences": {}
}